000                                                              0000                                                         000000000000000000000000                                                                                                                                                                                                         0000000000000000     00000000                                                                        000000000000000000000000000000000000000000000000000000000000000000000000          000000000000000000000000000000000000          000000000000000000000000000000000000          000000000000000000          000000000000000000000000000000000000 FIT                                                                                                                                                                                                                                                                                                         202104010000000000000000000000000000000000000000000000000000000000000000000000000000000000000000000000000000000000000000000000000000000000000000000000H000000000000000000000000000                                               00000000                                                                                                                                            00000000000                                                                                                                                      0000000000                                                                                                                                                                                                                                                                                                                                                                                                                                                                                                                                           000000000000000    00000000                              00000000                                                                                                                                                                                                                                                                                                                                                                                                                                                         000000000000000000000000000000000000000000000000000000000000000000000000000000000000000000000000000000000000000000000000000000000000                                                     000000000000000000000000
002RCMPG009160   001HIMEVEJA         BG           231       13200311109201540  IDR 2                                          202102152021022600000000                                                                                                                                                                                                   000   0000000000000000   N 00000000                                                                    IDRM000000000607200000000000000607200000000000000000000000000000000607200000          000000000000000000000000000000000000          000000000000000000000000000000000000          000000000000000000          000000000000000000000000000000000000AN                                                                                                                                                          000000000000000000                                                     2             001HIMEVEJA                                                 000000000000000000000000000000000000000000000000000000000000000000000000000000000000000000000000000000000000000000000000000000000000000000000000000000D000000000000000000020210226                                               00000000PT. PLN (PERSERO)                  UNIT PELAKSANA PEMBANGKIT SEBALANG JL. LINTAS SUMATERA KM 22 SEBALANG DS. TARAHAN - LAMPUNG SELATAN      20210312000                                                                                                                                  31900000000000                                                                                                                                                                               NAME1 001HIMEVEJA                  001HIMEVEJA                                                                                                                                                                                                                                                                                                           000000000000000000    00000000                              20210215                                                                                                                                                                                                                                                                                                                                                                                                                                                         00000000000000000000000000000000000000000000060720000000000000000000000000000000000000000000000000000000000000000000000000000000000012 5                                                 000000000000000000000000
002RCMPG009161   027CGXPOWSY         BG           231       13200311109201540  EUR 2                                          202102152021033000000000                                                                                                                                                                                                   000   0000000000000000   N 00000000                                                                    EURM000000000012345689000000000012345689000000000000000000000000000012345689          000000000000000000000000000000000000          000000000000000000000000000000000000          000000000000000000          000000000000000000000000000000000000AN                                                                                                                                                          000000000000000000                                                     2             027CGXPOWSY                                                 000000000000000000000000000000000000000000000000000000000000000000000000000000000000000000000000000000000000000000000000000000000000000000000000000000D000000000000000000020210330                                               00000000PT. PLN (PERSERO)                  UNIT PELAKSANA PEMBANGKIT SEBALANG JL. LINTAS SUMATERA KM 22 SEBALANG DS. TARAHAN - LAMPUNG SELATAN      20210429000                                                                                                                                  31100000000000                                                                                                                                                                               NAME1 027CGXPOWSY                  027CGXPOWSY                                                                                                                                                                                                                                                                                                           000000000000000000    00000000                              20210215                                                                                                                                                                                                                                                                                                                                                                                                                                                         00000000000000000000000000000000000000000019936114890000000000000000000000000000000000000000000000000000000000000000000000000000000090 5                                                 000000000000000000000000
002RCMPG009162   001HIMEVEJA         BG           231       13200311109201540  USD 2                                          202102222021040100000000                                                                                                                                                                                                   000   0000000000000000   N 00000000                                                                    USDM000000005000000000000000005000000000000000000000000000000000005000000000          000000000000000000000000000000000000          000000000000000000000000000000000000          000000000000000000          000000000000000000000000000000000000AN                                                                                                                                                          000000000000000000                                                     2             001HIMEVEJA                                                 000000000000000000000000000000000000000000000000000000000000000000000000000000000000000000000000000000000000000000000000000000000000000000000000000000D000000000000000000020210401                                               00000000PT. PLN (PERSERO)                  UNIT PELAKSANA PEMBANGKIT SEBALANG JL. LINTAS SUMATERA KM 22 SEBALANG DS. TARAHAN - LAMPUNG SELATAN      20210415000                                                                                                                                  31900000000000                                                                                                                                                                               NAME1 001HIMEVEJA                  001HIMEVEJA                                                                                                                                                                                                                                                                                                           000000000000000000    00000000                              20210222                                                                                                                                                                                                                                                                                                                                                                                                                                                         00000000000000000000000000000000000000007107500000000000000000000000000000000000000000000000000000000000000000000000000000000000000012 5                                                 000000000000000000000000
002RCMPG009163   027CGXPOWSY         BG           231       13200311109201540  SEK 2                                          202102222021040100000000                                                                                                                                                                                                   000   0000000000000000   N 00000000                                                                    SEKM000000000010000000000000000010000000000000000000000000000000000010000000          000000000000000000000000000000000000          000000000000000000000000000000000000          000000000000000000          000000000000000000000000000000000000AN                                                                                                                                                          000000000000000000                                                     2             027CGXPOWSY                                                 000000000000000000000000000000000000000000000000000000000000000000000000000000000000000000000000000000000000000000000000000000000000000000000000000000D000000000000000000020210401                                               00000000PT. PLN (PERSERO)                  UNIT PELAKSANA PEMBANGKIT SEBALANG JL. LINTAS SUMATERA KM 22 SEBALANG DS. TARAHAN - LAMPUNG SELATAN      20210501000                                                                                                                                  31100000000000                                                                                                                                                                               NAME1 027CGXPOWSY                  027CGXPOWSY                                                                                                                                                                                                                                                                                                           000000000000000000    00000000                              20210222                                                                                                                                                                                                                                                                                                                                                                                                                                                         00000000000000000000000000000000000000000001575140000000000000000000000000000000000000000000000000000000000000000000000000000000000090 5                                                 000000000000000000000000
005RCMPG009164   001HIMEVEJA         BG           231       13200311109201540  USD 1                                          202103012021042100000000                                                                                                                                                                                                   000   0000000000000000   N 00000000                                                                    USDM000000000000252467000000000000252467000000000000000000000000000000252467          000000000000000000000000000000000000          000000000000000000000000000000000000          000000000000000000          000000000000000000000000000000000000AN                                                                                                                                                          000000000000000000                                                     2             001HIMEVEJA                                                 000000000000000000000000000000000000000000000000000000000000000000000000000000000000000000000000000000000000000000000000000000000000000000000000000000D000000000000000000020210421                                               00000000PT. PLN (PERSERO)                  UNIT INDUK PEMBANGKITAN SUMATERA   BAGIAN SELATAN                     UNIT PELAKSANA PEMBANGKITAN        20210505000                                                                                                                                  31900000000000                                                                                                                                                                               NAME1 001HIMEVEJA                  001HIMEVEJA                                                                                                                                                                                                                                                                                                           000000000000000000    00000000                              20210301                                                                                                                                                                                                                                                                                                                                                                                                                                                         00000000000000000000000000000000000000000000358881840000000000000000000000000000000000000000000000000000000000000000000000000000000014 5                                                 000000000000000000000000
005RCMPG009165   027CGXPOWSY         BG           231       13200311109200202  EUR 1                                          202103012021042100000000                                                                                                                                                                                                   000   0000000000000000   N 00000000                                                                    EURM000000000008456645000000000008456645000000000000000000000000000008456645          000000000000000000000000000000000000          000000000000000000000000000000000000          000000000000000000          000000000000000000000000000000000000AN                                                                                                                                                          000000000000000000                                                     1             027CGXPOWSY                                                 000000000000000000000000000000000000000000000000000000000000000000000000000000000000000000000000000000000000000000000000000000000000000000000000000000D000000000000000000020210421                                               00000000PT. PLN (PERSERO)                  PEMBANGKITAN TANJUNG JATI B        DESA TUBANAN, KEC.KEMBANG          KAB.JEPARA                         20210505000                                                                                                                                  31100000000000                                                                                                                                                                               NAME1 027CGXPOWSY                  027CGXPOWSY                                                                                                                                                                                                                                                                                                           000000000000000000    00000000                              20210301                                                                                                                                                                                                                                                                                                                                                                                                                                                         00000000000000000000000000000000000000000013655993310000000000000000000000000000000000000000000000000000000000000000000000000000000012 5                                                 000000000000000000000000
005RCMPG009166   027CGXPOWSY         BG           231       13200311109201540  EUR 1                                          202103082021042100000000                                                                                                                                                                                                   000   0000000000000000   N 00000000                                                                    EURM000000000008456645000000000008456645000000000000000000000000000008456645          000000000000000000000000000000000000          000000000000000000000000000000000000          000000000000000000          000000000000000000000000000000000000AN                                                                                                                                                          000000000000000000                                                     2             027CGXPOWSY                                                 000000000000000000000000000000000000000000000000000000000000000000000000000000000000000000000000000000000000000000000000000000000000000000000000000000D000000000000000000020210421                                               00000000PT. PLN (PERSERO)                  PEMBANGKITAN TANJUNG JATI B        DESA TUBANAN, KEC.KEMBANG          DESA TUBANAN, KEC.KEMBANG          20210505000                                                                                                                                  31100000000000                                                                                                                                                                               NAME1 027CGXPOWSY                  027CGXPOWSY                                                                                                                                                                                                                                                                                                           000000000000000000    00000000                              20210301                                                                                                                                                                                                                                                                                                                                                                                                                                                         00000000000000000000000000000000000000000013655993310000000000000000000000000000000000000000000000000000000000000000000000000000000018 5                                                 000000000000000000000000
003RCMPG009167   027CGXPOWSY         BG           231       13200311109201540  EUR 2                                          202103162021042100000000                                                                                                                                                                                                   000   0000000000000000   N 00000000                                                                    EURM000000000041525000000000000041525000000000000000000000000000000041525000          000000000000000000000000000000000000          000000000000000000000000000000000000          000000000000000000          000000000000000000000000000000000000AN                                                                                                                                                          000000000000000000                                                     2             027CGXPOWSY                                                 000000000000000000000000000000000000000000000000000000000000000000000000000000000000000000000000000000000000000000000000000000000000000000000000000000D000000000000000000020210421                                               00000000PT. PLN (PERSERO) PEMBANGUNAN      SUMATERA BAGIAN SELATAN            JL. RESIDEN ROZAK NO. 2180,        PALEMBANG 30118                    20210505000                                                                                                                                  31100000000000                                                                                                                                                                               NAME1 027CGXPOWSY                  027CGXPOWSY                                                                                                                                                                                                                                                                                                           000000000000000000    00000000                              20210316                                                                                                                                                                                                                                                                                                                                                                                                                                                         00000000000000000000000000000000000000000067055566600000000000000000000000000000000000000000000000000000000000000000000000000000000090 5                                                 000000000000000000000000
003RCMPG009168   001ARLELEPE         BG           231       13200311109201540  IDR 2                                          202103032021042100000000                                                                                                                                                                                                   000   0000000000000000   N 00000000                                                                    IDRM000000190772838300000000190772838300000000000000000000000000190772838300          000000000000000000000000000000000000          000000000000000000000000000000000000          000000000000000000          000000000000000000000000000000000000AN                                                                                                                                                          000000000000000000                                                     2             001ARLELEPE                                                 000000000000000000000000000000000000000000000000000000000000000000000000000000000000000000000000000000000000000000000000000000000000000000000000000000D000000000000000000020210421                                               00000000PT. PLN (PERSERO)                  UNIT INDUK TRANSMISI JAWA BARAT    JL. EHAVE - GANDUL KEC. CINERE,    DEPOK 16514                        20210505000                                                                                                                                  54900000000000                                                                                                                                                                               NAME1 001ARLELEPE                  001ARLELEPE                                                                                                                                                                                                                                                                                                           000000000000000000    00000000                              20210316                                                                                                                                                                                                                                                                                                                                                                                                                                                         00000000000000000000000000000000000000000019077283830000000000000000000000000000000000000000000000000000000000000000000000000000000018 5                                                 000000000000000000000000
003RCMPG009169   001ARLELEPE         BG           231       13200311109201540  USD 2                                          202103242021042100000000                                                                                                                                                                                                   000   0000000000000000   N 00000000                                                                    USDM000000000006402372000000000006402372000000000000000000000000000006402372          000000000000000000000000000000000000          000000000000000000000000000000000000          000000000000000000          000000000000000000000000000000000000AN                                                                                                                                                          000000000000000000                                                     2             001ARLELEPE                                                 000000000000000000000000000000000000000000000000000000000000000000000000000000000000000000000000000000000000000000000000000000000000000000000000000000D000000000000000000020210421                                               00000000PT. PLN (PERSERO) WILAYAH MALUKU   DAN MALUKU UTARA                   JL. DIPONEGORO NO.2, AMBON                                            20210505000                                                                                                                                  54900000000000                                                                                                                                                                               NAME1 001ARLELEPE                  001ARLELEPE                                                                                                                                                                                                                                                                                                           000000000000000000    00000000                              20210316                                                                                                                                                                                                                                                                                                                                                                                                                                                         00000000000000000000000000000000000000000009100971800000000000000000000000000000000000000000000000000000000000000000000000000000000012 5                                                 000000000000000000000000
002RCMPG009170   001HIMEVEJA         BG           231       13200311109201540  JPY 2                                          202103242021040100000000                                                                                                                                                                                                   000   0000000000000000   N 00000000                                                                    JPYM000000000551275800000000000551275800000000000000000000000000000551275800          000000000000000000000000000000000000          000000000000000000000000000000000000          000000000000000000          000000000000000000000000000000000000AN                                                                                                                                                          000000000000000000                                                     2             001HIMEVEJA                                                 000000000000000000000000000000000000000000000000000000000000000000000000000000000000000000000000000000000000000000000000000000000000000000000000000000D000000000000000000020210401                                               00000000PT PLN(PERSERO) SEKTOR PENGENDALIANPEMBANGKITAN PANDAN JL PROF M.     HAJAIRIN KEL. SIBULUAN TERPADU     KEC PANDAN KAB. TAPANULI TENGAH    20210415000                                                                                                                                  31900000000000                                                                                                                                                                               NAME1 001HIMEVEJA                  001HIMEVEJA                                                                                                                                                                                                                                                                                                           000000000000000000    00000000                              20210316                                                                                                                                                                                                                                                                                                                                                                                                                                                         00000000000000000000000000000000000000000007161623920000000000000000000000000000000000000000000000000000000000000000000000000000000014 5                                                 000000000000000000000000
002RCMPG009171   027CGXPOWSY         BG           231       13200311109201540  EUR 1                                          202103242021033100000000                                                                                                                                                                                                   000   0000000000000000   N 00000000                                                                    EURM000000000041525000000000000041525000000000000000000000000000000041525000          000000000000000000000000000000000000          000000000000000000000000000000000000          000000000000000000          000000000000000000000000000000000000AN                                                                                                                                                          000000000000000000                                                     2             027CGXPOWSY                                                 000000000000000000000000000000000000000000000000000000000000000000000000000000000000000000000000000000000000000000000000000000000000000000000000000000D000000000000000000020210331                                               00000000GENERAL MANAGER                    PT. PLN (PERSERO) PEMBANGUNAN      JL. RESIDEN ROZAK NO.2180          PALEMBANG 30118                    20210414000                                                                                                                                  31100000000000                                                                                                                                                                               NAME1 027CGXPOWSY                  027CGXPOWSY                                                                                                                                                                                                                                                                                                           000000000000000000    00000000                              20210324                                                                                                                                                                                                                                                                                                                                                                                                                                                         00000000000000000000000000000000000000000067055566600000000000000000000000000000000000000000000000000000000000000000000000000000000090 5                                                 000000000000000000000000
002RCMPG009172   001ARLELEPE         BG           231       13200311109201540  IDR 1                                          202103032021040100000000                                                                                                                                                                                                   000   0000000000000000   N 00000000                                                                    IDRM000000190772838300000000190772838300000000000000000000000000190772838300          000000000000000000000000000000000000          000000000000000000000000000000000000          000000000000000000          000000000000000000000000000000000000AN                                                                                                                                                          000000000000000000                                                     2             001ARLELEPE                                                 000000000000000000000000000000000000000000000000000000000000000000000000000000000000000000000000000000000000000000000000000000000000000000000000000000D000000000000000000020210401                                               00000000PERUSAHAAN LISTRIK NEGARA PL N     UNIT INDUK TRANSMISI JAWA BARAT    JL. EHAVE - GANDUL KEC. CINERE     DEPOK 16514                        20210501000                                                                                                                                  54900000000000                                                                                                                                                                               NAME1 001ARLELEPE                  001ARLELEPE                                                                                                                                                                                                                                                                                                           000000000000000000    00000000                              20210324                                                                                                                                                                                                                                                                                                                                                                                                                                                         00000000000000000000000000000000000000000019077283830000000000000000000000000000000000000000000000000000000000000000000000000000000018 5                                                 000000000000000000000000
002RCMPG009173   001ARLELEPE         BG           231       13200311109201540  USD 1                                          202103242021040100000000                                                                                                                                                                                                   000   0000000000000000   N 00000000                                                                    USDM000000000006402372000000000006402372000000000000000000000000000006402372          000000000000000000000000000000000000          000000000000000000000000000000000000          000000000000000000          000000000000000000000000000000000000AN                                                                                                                                                          000000000000000000                                                     2             001ARLELEPE                                                 000000000000000000000000000000000000000000000000000000000000000000000000000000000000000000000000000000000000000000000000000000000000000000000000000000D000000000000000000020210401                                               00000000PT. P L N (PERSERO) WILAYAH MALUKU DAN MALUKU UTARA                   JL. DIPONEGORO NO. 2, AMBON                                           20210501000                                                                                                                                  54900000000000                                                                                                                                                                               NAME1 001ARLELEPE                  001ARLELEPE                                                                                                                                                                                                                                                                                                           000000000000000000    00000000                              20210324                                                                                                                                                                                                                                                                                                                                                                                                                                                         00000000000000000000000000000000000000000009100971800000000000000000000000000000000000000000000000000000000000000000000000000000000012 5                                                 000000000000000000000000
002RCMPG009174   001ARLELEPE         BG           231       13200311109201540  IDR 1                                          202103032021040100000000                                                                                                                                                                                                   000   0000000000000000   N 00000000                                                                    IDRM000000000427864200000000000427864200000000000000000000000000000427864200          000000000000000000000000000000000000          000000000000000000000000000000000000          000000000000000000          000000000000000000000000000000000000AN                                                                                                                                                          000000000000000000                                                     2             001ARLELEPE                                                 000000000000000000000000000000000000000000000000000000000000000000000000000000000000000000000000000000000000000000000000000000000000000000000000000000D000000000000000000020210401                                               00000000PERUSAHAAN LISTRIK NEGARA PLN      UNIT INDUK TRANSMISI JAWA BARAT    JL. EHAVE-GANDUL KEC.CINERE        DEPOK 16514                        20210501000                                                                                                                                  54900000000000                                                                                                                                                                               NAME1 001ARLELEPE                  001ARLELEPE                                                                                                                                                                                                                                                                                                           000000000000000000    00000000                              20210324                                                                                                                                                                                                                                                                                                                                                                                                                                                         00000000000000000000000000000000000000000000042786420000000000000000000000000000000000000000000000000000000000000000000000000000000090 5                                                 000000000000000000000000
002RCMPG009175   001ARLELEPE         BG           231       13200311109201540  USD 1                                          202103242021040100000000                                                                                                                                                                                                   000   0000000000000000   N 00000000                                                                    USDM000000000002547600000000000002547600000000000000000000000000000002547600          000000000000000000000000000000000000          000000000000000000000000000000000000          000000000000000000          000000000000000000000000000000000000AN                                                                                                                                                          000000000000000000                                                     2             001ARLELEPE                                                 000000000000000000000000000000000000000000000000000000000000000000000000000000000000000000000000000000000000000000000000000000000000000000000000000000D000000000000000000020210401                                               00000000PT. PLN (PERSERO) WILAYAH MALUKU   JL. DIPONEGORO NO. AMBON                                                                                 20210501000                                                                                                                                  54900000000000                                                                                                                                                                               NAME1 001ARLELEPE                  001ARLELEPE                                                                                                                                                                                                                                                                                                           000000000000000000    00000000                              20210324                                                                                                                                                                                                                                                                                                                                                                                                                                                         00000000000000000000000000000000000000000003621413400000000000000000000000000000000000000000000000000000000000000000000000000000000012 5                                                 000000000000000000000000
002RCMPG009176   001ARLELEPE         BG           231       13200311109201540  SEK 1                                          202103312021040900000000                                                                                                                                                                                                   000   0000000000000000   N 00000000                                                                    SEKM000000000000262976000000000000262976000000000000000000000000000000262976          000000000000000000000000000000000000          000000000000000000000000000000000000          000000000000000000          000000000000000000000000000000000000AN                                                                                                                                                          000000000000000000                                                     2             001ARLELEPE                                                 000000000000000000000000000000000000000000000000000000000000000000000000000000000000000000000000000000000000000000000000000000000000000000000000000000D000000000000000000020210409                                               00000000PERUSAHAAN LISTRIK NEGARA PLN      UNIT INDUK TRANSMISI JAWA BARAT    JL. EHAVE - GANDUL KEC. CINERE,    DEPOK 16514                        20210509000                                                                                                                                  54900000000000                                                                                                                                                                               NAME1 001ARLELEPE                  001ARLELEPE                                                                                                                                                                                                                                                                                                           000000000000000000    00000000                              20210331                                                                                                                                                                                                                                                                                                                                                                                                                                                         00000000000000000000000000000000000000000000041422400000000000000000000000000000000000000000000000000000000000000000000000000000000090 5                                                 000000000000000000000000
002RCMPG009177   001ARLELEPE         BG           231       13200311109201540  EUR 2                                          202104012021040200000000                                                                                                                                                                                                   000   0000000000000000   N 00000000                                                                    EURM000000000002547667000000000002547667000000000000000000000000000002547667          000000000000000000000000000000000000          000000000000000000000000000000000000          000000000000000000          000000000000000000000000000000000000AN                                                                                                                                                          000000000000000000                                                     2             001ARLELEPE                                                 000000000000000000000000000000000000000000000000000000000000000000000000000000000000000000000000000000000000000000000000000000000000000000000000000000D000000000000000000020210402                                               00000000PT. PLN (PERSERO) WILAYAH MALUKU   DAN MALUKU UTARA                   JL. DIPONEGORO NO. 2, AMBON                                           20210502000                                                                                                                                  54900000000000                                                                                                                                                                               NAME1 001ARLELEPE                  001ARLELEPE                                                                                                                                                                                                                                                                                                           000000000000000000    00000000                              20210331                                                                                                                                                                                                                                                                                                                                                                                                                                                         00000000000000000000000000000000000000000004114033820000000000000000000000000000000000000000000000000000000000000000000000000000000012 5                                                 000000000000000000000000
002RCMPG009179   027CGXPOWSY         BG           231       13200311109201540  IDR 1                                          202104012021052400000000                                                                                                                                                                                                   000   0000000000000000   N 00000000                                                                    IDRM000234736427846200000234736427846200000000000000000000000234736427846200          000000000000000000000000000000000000          000000000000000000000000000000000000          000000000000000000          000000000000000000000000000000000000AN                                                                                                                                                          000000000000000000                                                     2             027CGXPOWSY                                                 000000000000000000000000000000000000000000000000000000000000000000000000000000000000000000000000000000000000000000000000000000000000000000000000000000D000000000000000000020210524                                               00000000PLN PERSERO TBK, PT                UNIT JAWA TENGAH                                                                                         20210607000                                                                                                                                  31100000000000                                                                                                                                                                               NAME1 027CGXPOWSY                  027CGXPOWSY                                                                                                                                                                                                                                                                                                           000000000000000000    00000000                              20210401                                                                                                                                                                                                                                                                                                                                                                                                                                                         00000000000000000000000000000000000000023473642784620000000000000000000000000000000000000000000000000000000000000000000000000000000014 5                                                 000000000000000000000000
003RCMPG009180   001HIMEVEJA         BG           231       13200311109201540  SEK 1                                          202104012021052400000000                                                                                                                                                                                                   000   0000000000000000   N 00000000                                                                    SEKM000000000000252467000000000000252467000000000000000000000000000000252467          000000000000000000000000000000000000          000000000000000000000000000000000000          000000000000000000          000000000000000000000000000000000000AN                                                                                                                                                          000000000000000000                                                     2             001HIMEVEJA                                                 000000000000000000000000000000000000000000000000000000000000000000000000000000000000000000000000000000000000000000000000000000000000000000000000000000D000000000000000000020210524                                               00000000PT PERUSAHAAN LISTRIK NEGARA PLN   UNIT SUMATERA                                                                                            20210623000                                                                                                                                  31900000000000                                                                                                                                                                               NAME1 001HIMEVEJA                  001HIMEVEJA                                                                                                                                                                                                                                                                                                           000000000000000000    00000000                              20210401                                                                                                                                                                                                                                                                                                                                                                                                                                                         00000000000000000000000000000000000000000000039767090000000000000000000000000000000000000000000000000000000000000000000000000000000018 5                                                 000000000000000000000000
004RCMTB018456   001LIEPER           IB                      3200311103608013  IDRU1 RCMLC023159                              202010012020100920201009SINGAPORE                                                        JAKARTA                                                                                                                           360FD+0000000015000000SG  +15000000ARUOVBSGSGXXX                                                       IDRO000000000759958800000000000759958800000000000000000000000000000759958800          00000000000000000000000000000000000004041002  000000000002533200000000000000000000          000000000000000000          000000000000000000000000000000000000AI                                                           N                                                                                              000000000000000000                   YA                                                                                                          000000000000000000000000000000001500000100000000000000000000000000000000000000000000000000000000000000000000000000000000000000000000000000000000000000D202009242020100101000000000                                               00000000FDA                                DFA                                                                                                      00000000000                                                                                                                                  18100000000000                                                                                                                                                                               NAME1 001LIEPER                    001LIEPER                                                                                                                                                                                                                                                                                                             000000000000000000    00000000                              20201001                                                                                                                                                                                                                                                                                                                                                                                                                                                        N000000000000000000000000000000000000000000000759958800000000000002533200000000000000000000000000000000000000000000000000000020201001                                                     000000000000000000000000
000                                                              0000                                                         000000000000000000000000                                                                                                                                                                                                         0000000000000000     00000000                                                                        000000000000000000000000000000000000000000000000000000000000000000000000          000000000000000000000000000000000000          000000000000000000000000000000000000          000000000000000000          000000000000000000000000000000000000                                                                                                                                                                                                                                                                                                             000000000000000000000000000000000000000000000000000000000000000000000000000000000000000000000000000000000000000000000000000000993200002006781489332693T000000000000000000000000000                                               00000000                                                                                                                                            00000000000                                                                                                                                      0000000000                                                                                                                                                                                                                                                                                                                                                                                                                                                                                                                                           000000000000000    00000000                              00000000                                                                                                                                                                                                                                                                                                                                                                                                                                                         000000000000000000000000000000000000000000000000000000000000000000000000000000000000000000000000000000000000000000000000000000000000                                                     000000000000000000000000
