000000000000000000                                                                                                             0000          000000000000000000000                         000000000000000000000000000000000000000000000000000000 0000000000000000     00000000FIT                                                                                                                                                                                                                                                                                                         202104010000000000000000000000000000000000000000000000000000000000000000000000000000000000000000000000000000000000000000000000000000000000000000000000H                                                                                                                         0000000000000000000000000000000000000000000000000000000000                00000000000000000000000000000000000000000000000000000000000
000000000000000003RCMPG009128   027CGXPOWSY         0000000000300018656 Y027CGXPOWSY         BG        231       HKBBGINP      3111          000000000000000000000                  IDR   M000000000000000000000000000000000000000000000000000000 2021040100000000FIT  0000000009201540                                                                                                                                                                            027CGXPOWSY                                                 HKBBGINP  1                                                 000000000000000000000000000000000000000000000000000000000000000000000000000000000000000000000000000000000000000000000000000000000000000000000000000000DM                                                                                                                        0000000000000000000000000000000000000000000000000000000000                00000000000000000000000000000000000000000000000000000001016
000000000000000003RCMPG009167   027CGXPOWSY         0000000000300018656 Y027CGXPOWSY         BG        231       HKBBGAMA      3111          000000000000000000000                  EUR   A000000000000000000000000000000000000000000000000000000 2021040116181700FIT  0000000009201540                                                                                                                                                                            027CGXPOWSY                                                 HKBBGAMA  2                                                 000000000000000000000000000000000000000000000000000000000000000000000000000000000000000000000000000000000000000000000000000000000000000000000000000000DM                              ID1FITTR07                    ID1FITTR10                                                  0000000000000000000000000000670555666000000000000041525000                00000000000000000000000000000000000000000000000000000001016
000000000000000003RCMPG009168   001ARLELEPE         0000000000100088664 Y001ARLELEPE         BG        231       HKBBGAMA      3111          000000000000000000000                  IDR   A000000000000000000000000000000000000000000000000000000 2021040116183800FIT  0000000009201540                                                                                                                                                                            001ARLELEPE                                                 HKBBGAMA  2                                                 000000000000000000000000000000000000000000000000000000000000000000000000000000000000000000000000000000000000000000000000000000000000000000000000000000DM                              ID1FITTR07                    ID1FITTR10                                                  0000000000000000000000000000190772838300000000190772838300                00000000000000000000000000000000000000000000000000000001016
000000000000000003RCMPG009169   001ARLELEPE         0000000000100088664 Y001ARLELEPE         BG        231       HKBBGAMA      3111          000000000000000000000                  USD   A000000000000000000000000000000000000000000000000000000 2021040116184700FIT  0000000009201540                                                                                                                                                                            001ARLELEPE                                                 HKBBGAMA  2                                                 000000000000000000000000000000000000000000000000000000000000000000000000000000000000000000000000000000000000000000000000000000000000000000000000000000DM                              ID1FITTR07                    ID1FITTR10                                                  0000000000000000000000000000091009718000000000000006402372                00000000000000000000000000000000000000000000000000000001016
000000000000000002RCMPG009179   027CGXPOWSY         0000000000300018656 Y027CGXPOWSY         BG        231       HKBBGCAA      3111          000000000000000000000                  IDR   A000000000000000000000000000000000000000000000000000000 2021040119431600FIT  0000000009201540                                                    BGC                                                                                                                     027CGXPOWSY                                                 HKBBGCAA  1                                                 000000000000000000000000000000000000000000000000000000000000000000000000000000000000000000000000000000000000000000000000000000000000000000000000000000DM                              ID1FITTR06                    ID1FITTR10                                                  0000000000000000000000000234736427846200000234736427846200                00000000000000000000000000000000000000000000000000000001016
000000000000000003RCMPG009180   001HIMEVEJA         0000000000800001129 Y001HIMEVEJA         BG        231       HKBBGCAA      3111          000000000000000000000                  SEK   A000000000000000000000000000000000000000000000000000000 2021040119432200FIT  0000000009201540                                                    BGC                                                                                                                     001HIMEVEJA                                                 HKBBGCAA  1                                                 000000000000000000000000000000000000000000000000000000000000000000000000000000000000000000000000000000000000000000000000000000000000000000000000000000DM                              ID1FITTR06                    ID1FITTR10                                                  0000000000000000000000000000000397670900000000000000252467                00000000000000000000000000000000000000000000000000000001016
000000000000000900RCMTB018351   027SPIINDIN         0000000001900059299 Y027SPIINDIN         IB                  HKBIBINP  3200311100125021  202104010000000000000               IDRIDR   A000000005607702800000000000000000000000000000000000000C2021040100000000FIT  0000000003608013                                                                                                                I                                                           027SPIINDIN                                                                                                             000000000000000000000000000000000000000000000000000000000000000000000000000000000000000000000000000000000000000000000000000000000000000000000000000000DM                                                                                                                        0000000000000000000000000000000000000000000000000000000000                00000000000000000000000000000000000000000000000000000001016
000000000000000000                                                                                                             0000          000000000000000000000                         000000000000000000000000000000000000000000000000000000 0000000000000000     00000000                                                                                                                                                                                                                                                                                                            000000000000000000000000000000000000000000000000000000000000000000000000000000000000000000000000000000000000000000000000000000701100000008972687767216T                                                                                                                         0000000000000000000000000000000000000000000000000000000000                00000000000000000000000000000000000000000000000000000000000
